:020000040800F2
:10000000F01E0020DD010008690D0008F50B000856
:10001000650D0008A30700083D2600080000000049
:10002000000000000000000000000000AD1E0008FD
:10003000DD0A0008000000006B020008C11F000874
:10004000F7010008F7010008F7010008F7010008B0
:10005000F7010008F7010008F7010008F7010008A0
:10006000F7010008F7010008F7010008F701000890
:10007000F7010008F7010008F7010008F701000880
:10008000F7010008F7010008F7010008F701000870
:10009000F7010008F7010008F7010008F701000860
:1000A000F7010008F7010008F7010008F701000850
:1000B000F7010008F7010008F7010008F701000840
:1000C000F7010008F7010008F7010008F701000830
:1000D000F70100083D200008ED200008A1210008DC
:1000E000F7010008F7010008F7010008F701000810
:1000F000F7010008F7010008F7010008F701000800
:10010000F7010008F7010008F7010008F7010008EF
:10011000F7010008F7010008F7010008F7010008DF
:10012000F7010008F7010008F7010008F7010008CF
:1001300000F002F800F042F80AA090E8000C8244B7
:100140008344AAF10107DA4501D100F037F8AFF294
:10015000090EBAE80F0013F0010F18BFFB1A43F0A5
:1001600001031847B4270000D4270000103A24BF29
:1001700078C878C1FAD8520724BF30C830C144BF0C
:1001800004680C607047000000230024002500264E
:10019000103A28BF78C1FBD8520728BF30C148BFEA
:1001A0000B607047642900F0DD80732900F0FD8149
:1001B000002070471FB51FBD10B510BD00F010FA2C
:1001C0001146FFF7F7FF02F0D9FA00F02EFA03B458
:1001D000FFF7F2FF03BC00F035FA00000948804742
:1001E00009480047FEE7FEE7FEE7FEE7FEE7FEE719
:1001F000FEE7FEE7FEE7FEE704480549054A064B31
:1002000070470000DD1F000831010008F0120020D7
:10021000F01E0020F01A0020F01A0020EFF31080EA
:1002200072B6704780F310887047204C204D2560CF
:100230004FF0000484F309881E4C4FF0010525702F
:100240001D4C4FF08055256062B6FEE730B41A4C65
:100250004FF08055256030BC704730B4164C4FF0DD
:100260008055256030BC704700BF72B6EFF309803F
:1002700028B1203880E8F00F10490968086000B5FF
:100280000F4880475DF804EB0E480F490A7802706A
:100290000A480E490A680260106890E8F00F2030A2
:1002A00080F309884EF0040E62B6704720ED00E03E
:1002B0000000FFFF8A00002004ED00E09000002015
:1002C000011500087F000020800000209800002019
:1002D0000FB4044910B503AA029800F06BF910BCE2
:1002E0005DF814FB240000200FB41CB5074B06AAD0
:1002F0007B4469460090059800F02DF9002069467E
:1003000000F03CF91CBC5DF814FB00008902000001
:1003100070B50C460546012A05D02878800600D520
:10032000EA69002302E0012305E05B1C934202D24C
:10033000E05C0028F9D1A869E618C01AA861286A0B
:10034000184428622846AFF3008004E0D5E9012173
:1003500014F8010B9047B442F8D32846AFF300805D
:1003600070BD00002DE9F041064600241068752993
:10037000314616A510D0AFF30080002802DA4042C3
:1003800013A507E031688A0701D512A502E04907E5
:1003900004D511A5012401E0AFF3008000210A2259
:1003A00006F1240709E0B0FBF2FCB0FBF2F302FB1C
:1003B0001C00303078541846491C0028F3D12346DD
:1003C0002A463046BDE8F04100F067B80000000062
:1003D0002D0000002B000000200000002DE9F0415E
:1003E0000F460546002028622846E968884770B312
:1003F000252805D0D5E901219047286A401CF2E75D
:10040000E9682846002688476C2804460AD0682CEC
:1004100008D04C2C35D06A2C31D0742C31D07A2CA9
:100420002FD016E0E968064628468847B0420446C1
:1004300008D16C2E23D04FF480662846E96888479F
:10044000044606E06C2E03D04FF4807601E01EE0F7
:100450004026E4B1A4F14100192802D8203446F422
:1004600000663A46214628462E60FFF79BFE60B1A3
:10047000012808D0FF1D27F007070837B4E78026BA
:10048000DBE70026D9E73F1DAEE72046B2E7286A42
:10049000BDE8F0817047704770472DE9F0470D4681
:1004A00099469246044600F124080168880604D55E
:1004B000E06921F01001216000E00120A84201DD87
:1004C000471B00E00027A1697A1902EB0900081A0E
:1004D000A0612078C00602D42046AFF30080002639
:1004E00008E0D4E901211AF806009047206A401C70
:1004F000761C20624E45F4DB2078C0060AD52046E3
:10050000AFF3008006E0D4E9012130209047206A53
:10051000401C2062381EA7F10107F4DC07E0D4E993
:10052000012118F805009047206A401C2062281E0F
:10053000A5F10105F3DC2046AFF30080207800062A
:1005400002D50220BDE8F0870120FBE701694A1CC3
:1005500002610878704700B58FB0CDE90131002104
:10056000059105497944CDE9031011466846FFF726
:1005700035FF0FB000BD0000E5FFFFFF0A6802F87D
:10058000010B0A60704710B5436913B1AFF30080E7
:1005900001E0FFF7BDFE012010BD127800F124013B
:1005A0000A7000224A700122EDE711684FF0FF3215
:1005B000E9E70000074B70B50D467B44FFF7CBFF22
:1005C0000446284600F008F810B14FF0FF3070BD27
:1005D000204670BDA7210000007B00F0800070471E
:1005E000754600F02BF8AE4605006946534620F0EC
:1005F0000700854618B020B5FFF7FEFDBDE8204096
:100600004FF000064FF000074FF000084FF0000BCE
:1006100021F00701AC46ACE8C009ACE8C009ACE881
:10062000C009ACE8C0098D46704710B50446AFF369
:1006300000802046BDE81040FFF7C9BD0048704764
:100640009012002001491820ABBEFEE726000200F0
:10065000704721B1826842F00102826003E0826843
:1006600022F00102826070470146C86C80B2704778
:100670000246002013680B400BB1012000E000206F
:100680007047000030B502460020002350680F4C30
:1006900020400D790C6844EA05242043506090689E
:1006A0000B4C2040D1E902542C434D7944EA4504D7
:1006B00020439060D06A20F470000C7C641EE4B289
:1006C000234340EA0350D06230BD0000FFFEF0FF3C
:1006D000FDF7F1FFF0B504460D4600200021092D7D
:1006E00011DDE068A5F10A0606EB4607072606FAC3
:1006F00007F18843A5F10A0606EB460603FA06F160
:100700000843E0600CE0206905EB4507072606FA80
:1007100007F1884305EB450603FA06F1084320611B
:10072000072A0FDA606B561E06EB86071F2606FAAD
:1007300007F18843561E06EB860605FA06F10843C4
:10074000606322E00D2A0FDA206BD61F06EB8607C6
:100750001F2606FA07F18843D61F06EB860605FA20
:1007600006F10843206310E0E06AA2F10D0606EBF3
:1007700086071F2606FA07F18843A2F10D0606EB4D
:10078000860605FA06F10843E062F0BD21B18268F1
:1007900042F4A002826003E0826822F4A002826038
:1007A000704700BFFEE7000010B500241548006840
:1007B00020F00F00134908600846006840F0080068
:1007C000086004E0601CC4B2012001F09DFF0E48E7
:1007D000006808B1642CF5DB642C01DB012010BD3E
:1007E000002404E0601CC4B2012001F08DFF064823
:1007F000006808B9642CF5DB642C01DB0120EEE70E
:100800000020ECE7040801402001214210B500243B
:100810001548006820F070401349086008460068D9
:1008200040F00040086004E0601CC4B2012001F008
:100830006BFF0E48006808B1642CF5DB642C01DB0B
:10084000012010BD002404E0601CC4B2012001F0AE
:100850005BFF0648006808B9642CF5DB642C01DBFB
:100860000120EEE70020ECE7000801401C012142D6
:1008700010B5002404E0601CC4B2012001F044FF64
:100880000D48006808B1642CF5DB002404E0601C0E
:10089000C4B2012001F038FF0748006808B9642C91
:1008A000F5DB282001F030FF0348006808B1012083
:1008B00010BD0020FCE700002001214210B50024FB
:1008C00004E0601CC4B2012001F01EFF0D48006866
:1008D00008B1642CF5DB002404E0601CC4B20120E4
:1008E00001F012FF0748006808B9642CF5DB2820E6
:1008F00001F00AFF0348006808B1012010BD002084
:10090000FCE700001C01214270B50024002506E030
:100910006006040EFFF7ACFF0443681CC5B2082D47
:10092000F6DB204670BD70B50024002506E06006A9
:10093000040EFFF7C3FF0443681CC5B2082DF6DBA5
:10094000204670BD7CB505460E4600F053F8FFF713
:100950002BFFF8B9002405E0FFF7D6FF0DF80400DF
:10096000601CC4B2052CF7DB9DF800009DF8011057
:1009700008449DF8021008449DF8031008449DF8AF
:100980000410884208D19DF8000030709DF80200E4
:10099000287001E001207CBD0020FCE77CB5054605
:1009A0000E4600F047F8FFF731FFF8B9002405E0E4
:1009B000FFF7B9FF0DF80400601CC4B2052CF7DB8B
:1009C0009DF800009DF8011008449DF802100844AD
:1009D0009DF8031008449DF80410884208D19DF842
:1009E000000030709DF80200287001E001207CBDFD
:1009F0000020FCE710B50C48006820F00F000A4901
:100A000008600846006840F00300086000200749BD
:100A10000860142001F042FE01200549C1F8A00140
:100A20001E2001F071FE10BD04080140A00121420A
:100A30000000214210B50C48006820F070400A49BF
:100A400008600846006840F04050086000200749F0
:100A50000860142001F022FE01200549C1F89C0124
:100A60001E2001F051FE10BD000801409C012142F2
:100A70000000214288B000240020069005900490D8
:100A800003901FE007AA0A210F48006800F048FA07
:100A9000044605A906A8FFF755FF03A904A8FFF718
:100AA0007DFF9DF80C00CDE900049DF810309DF805
:100AB00014209DF8181005A0FFF70AFC4FF4FA6007
:100AC00001F0ECFDDEE70000080000202564202591
:100AD00064202564202564202573000070472DE9DB
:100AE000F0410246002500260020002300240027B4
:100AF00091F803C00CF00F0591F803C00CF0100C36
:100B0000BCF1000F03D091F802C04CEA050591F842
:100B100000C0BCF1000F31D0146800202BE04FF072
:100B2000010C0CFA00F3B1F800C00CEA03069E4277
:100B300020D183004FF00F0C0CFA03F7BC4305FAE9
:100B400003FC4CEA040491F803C0BCF1280F06D161
:100B50004FF0010C0CFA00FCC2F814C00AE091F846
:100B600003C0BCF1480F05D14FF0010C0CFA00FC9A
:100B7000C2F810C0401C0828D1D31460B1F800C0DE
:100B8000BCF1FF0F34DD546800202EE000F1080CAA
:100B90004FF0010808FA0CF3B1F800C00CEA0306A4
:100BA0009E4221D183004FF00F0C0CFA03F7BC4397
:100BB00005FA03FC4CEA040491F803C0BCF1280FC9
:100BC00005D100F1080C08FA0CF8C2F8148091F86D
:100BD00003C0BCF1480F07D100F1080C4FF0010829
:100BE00008FA0CF8C2F81080401C0828CED35460D4
:100BF000BDE8F08100BFFEE700B587B001214802E3
:100C000001F0CAF80121042001F0C6F80120ADF876
:100C1000180000208DF81B0003208DF81A0006A98B
:100C20001248FFF75CFF002001908DF808000120BA
:100C30008DF809004FF460200390002004900120FB
:100C40008DF8140001A90A48FFF71CFD05230122B5
:100C500000210748FFF73EFD01210548FFF7F9FC99
:100C600001210348FFF792FD07B000BD00080140D5
:100C70000024014000B587B00121880201F08CF802
:100C80000121042001F088F80220ADF818000020AE
:100C90008DF81B0003208DF81A0006A91248FFF7F3
:100CA0001EFF002001908DF8080001208DF809003A
:100CB0004FF4602003900020049001208DF8140070
:100CC00001A90A48FFF7DEFC052301221146074867
:100CD000FFF700FD01210548FFF7BBFC0121034898
:100CE000FFF754FD07B000BD000801400028014097
:100CF00086B028E000BF02211348FFF7B9FC0028A6
:100D0000F9D01148FFF7B0FC1049088000BF02215C
:100D10000D48FFF7ADFC0028F9D00D48FFF7A4FC03
:100D20000C4908804FF47A7001F0B8FC0948038838
:100D30000648028808A101A8FFF7D6FA01A90848C9
:100D4000006800F06FF9D5E70024014000000020A2
:100D50000028014002000020256C6420256C6400FE
:100D60000800002000BFFEE77047000070B50021BA
:100D700000230F22C47804B3154C246804F4E06403
:100D8000C4F5E064210AC1F10403CA40447804FABE
:100D900003F184781440214309010E4C0678A155D3
:100DA000047804F01F050124AC4005786D11AD00F6
:100DB00005F1E025C5F8004109E0047804F01F05BD
:100DC0000124AC40044D0678761145F8264070BDEC
:100DD0000CED00E000E400E080E100E002490143A6
:100DE000024A1160704700000000FA050CED00E0B7
:100DF00010B500F013F800F033FD00F05BFD00F0DB
:100E00007BFD00F003FD00F0D5FC00F00FFE00F0CC
:100E1000B3FD00F0D9FD00F002F810BD7047704737
:100E200006480078012808D105480078FF2804D238
:100E300003480078401C0249087070478A0000206F
:100E40007D00002010B500241A480078012830D118
:100E5000FFF7E4F904461848007820B116480078F6
:100E6000401E1549087014480078F8B913480078F6
:100E7000E0B900F03DFE12481249097850F821000F
:100E8000114908600F4800781049097888420DD050
:100E90000D480068806B401C0B49096888630C484A
:100EA0000068401C0A490860FFF7D7F92046FFF7A1
:100EB000B9F910BD8A0000207D0000207E000020CE
:100EC000280D002080000020980000207F000020D6
:100ED0006400002070B5054600260F48007808B170
:100EE000002070BDFFF79AF906460C4804680068B8
:100EF00020B10A4800684068084908603046FFF79A
:100F000091F93CB1012020700020208165602046CD
:100F100000F042FC2046E4E77D000020680000204D
:100F20002DE9F04105460F4614464FF00008287899
:100F3000012804D0012020700020BDE8F08136484F
:100F4000007818B1022020700020F6E733480078BE
:100F500018B10D2020700020EFE7FFF75FF9804601
:100F60006E6846B1002068604046FFF75BF90020DC
:100F700020703046E1E72A48006890F8300040F0E1
:100F800002002749096881F83000002024490968D7
:100F900081F8310022480068C762284600F0BEFB95
:100FA0004046FFF73FF900F069FDFFF737F980464B
:100FB0001B48006890F8310020B101280DD00228AC
:100FC0000AD105E016480068066A002020700DE08E
:100FD00000260E20207009E000BF29461048006856
:100FE00000F086FB00260A20207000BF00BF002012
:100FF0000B49096881F830000949096881F8310016
:1010000007490968C8610649096808624046FFF750
:1010100009F9304691E700007D0000207E000020A5
:101020009000002070B504460D4600262078012867
:1010300001D0012070BDFFF7F1F80646A07A60B13B
:10104000002302222946204600F010FB3046FFF71D
:10105000E9F800F013FD0020ECE7606820B13046AD
:10106000FFF7E0F81420E5E765603046FFF7DAF8AF
:101070000020DFE710B500240B480078012811D1CB
:10108000FFF7CCF804460948007840B908480078D2
:10109000FF2804D206480078401C05490870204605
:1010A000FFF7C0F810BD00008A0000207D0000207E
:1010B0007E00002010B5002413480078012821D1BB
:1010C000FFF7ACF8044611480078C0B10F4800782B
:1010D000401E0E4908700846007860B90C48007838
:1010E00028B92046FFF79EF800F0C8FC0AE0204629
:1010F000FFF798F806E02046FFF794F802E0204654
:10110000FFF790F810BD00008A0000207E0000204C
:101110007D00002010B50B48007890B900F0E8FC85
:10112000094800780949087009480749097850F8C2
:101130002100084908600846006807490860FFF771
:1011400074F810BD8A000020800000207F0000207D
:10115000280D00209800002090000020704700001B
:101160002DE9FE4F06460F4690461C464FF00009FB
:10117000FFF754F881461F48007828B14846FFF72A
:1011800051F83C20BDE8FE8F1B4850F8240060BB9E
:101190000120194941F824004846FFF743F800238D
:1011A00042463946304600F009F982460020009058
:1011B00001900346024651460290204600F0AEFCE4
:1011C000054635B90D48007801280CD100F056FCD1
:1011D00009E0FFF723F881460020074941F8240081
:1011E0004846FFF71FF82846CCE74846FFF71AF8AD
:1011F0002820C7E77D000020280D00208A0000205D
:101200002DE9F04F85B081468A4693461C46DDE9BC
:101210000F78129D00200390FFF700F803902348F9
:10122000007830B10398FEF7FDFF3C2005B0BDE823
:10123000F08F1F4850F8240088BB01201C4941F85A
:1012400024000398FEF7EEFF2A464146384600F098
:1012500075FD2B465A465146484600F0AFF80490BB
:101260001198CDE9008002953A4620460E9B0499DC
:1012700000F054FC064636B90E48007801280CD11F
:1012800000F0FCFB09E0FEF7C9FF039000200849CD
:1012900041F824000398FEF7C5FF3046C6E7FFE794
:1012A0000398FEF7BFFF2820C0E700007D00002064
:1012B000280D00208A000020704770472DE9F0417A
:1012C00006460F4614464FF000081548007818B13E
:1012D00012202070BDE8F081FEF7A0FF8046FF2EAF
:1012E00003D11048006890F832600F4850F826503B
:1012F0002DB94046FEF796FF43202070EAE7012D06
:1013000005D14046FEF78EFF43202070E2E7EF64F0
:101310004046FEF787FF0020207000BFDAE700009C
:101320007D00002090000020280D00207047000064
:101330002DE9F04707460D464FF0000A00202860CF
:101340006860FEF76BFF8246FF2F03D119480068E3
:1013500090F83270184850F827402CB95046FEF7E4
:1013600061FF4320BDE8F087012C04D15046FEF711
:1013700059FF4320F6E7207C00F0010020B95046D9
:10138000FEF750FF4520EDE70026D4F80C90D4F886
:1013900008805046FEF746FF00E0761C58F8041B14
:1013A0000029FAD0B0002860A9EB06008000686030
:1013B0000020D7E790000020280D002070B50446DB
:1013C00010464FF080750560051F28462C606FF0B1
:1013D0000106051F28462E604FF01236051F2846CD
:1013E0002E604FF00336051F28462E604FF0023660
:1013F000051F28462E607610051F28462E60051F03
:10140000284629604FF01136051F28462E604FF000
:101410001036051F28462E604FF00936051F284656
:101420002E604FF00836051F28462E604FF0073615
:10143000051F28462E604FF00636051F28462E60F1
:101440004FF00536051F28462E604FF00436051F65
:1014500028462E6070BD00002DE9F04105464FF092
:101460000008FEF7DBFE8046FF2D05D1204800680E
:1014700090F83250012608E01D48006890F83200CC
:10148000A84201D1012600E000261A4850F8254064
:101490002CB94046FEF7C6FE4820BDE8F081012C7D
:1014A00004D14046FEF7BEFE4320F6E794F83470C0
:1014B0001148C05D94F8351088430F49C855084657
:1014C000C05D30B994F836100C48007888430B4959
:1014D000087094F8300040F0080084F8300040466E
:1014E000FEF7A0FE012E01D100F0C8FA0020D4E7DB
:1014F00090000020280D00208200002081000020A4
:101500007047000070B5054600261748007800B106
:1015100070BD1648007800B1FAE71DB3FEF77EFEF5
:1015200006461348006890F834401248005D1049A0
:10153000096891F8351088430E4908550846005D42
:1015400040B90B48006890F836100B480078884383
:101550000949087006480068C5623046FEF762FE19
:1015600000F08CFA00BFD3E77D0000207E00002051
:1015700090000020820000208100002070B500262D
:1015800000F072F8FEF74AFE064631480068401C3B
:101590002F4908603046FEF745FE2E4800780128A6
:1015A00053D12D48007820B1012804D0022809D158
:1015B00003E001250BE0002509E001250120264973
:1015C000087004E0012500202349087000BF00BF17
:1015D00005B970BD2148046833E0FEF71FFE0646DA
:1015E000E06A50B3E06A401EE062E06A28BB94F80B
:1015F000300000F0370040B114F8300F00F0C800A0
:10160000207001206070303C02E0002084F831003E
:1016100094F8300000F0080078B93434A07810490C
:10162000097808430E49087020780E49085C6178F3
:10163000084314F834190B4A505464693046FEF7D5
:10164000F1FD94F832003F28C7D100BFC1E7000088
:10165000A80000208A000020A00000209C0000209C
:101660008100002082000020704700002DE9F04F2B
:1016700005460F4690469946A87A19490E5C05F131
:101680000B00805D11F800B00BEBC60000F0FF0A04
:10169000144850F82A4000202034E0602760207C65
:1016A00020EA0800207484F81190207C203C00F08F
:1016B000080068B994F836000B49097808430A49CC
:1016C00008700A48805D94F835100843074988552A
:1016D0002946204600F00CF85046BDE8F08F000087
:1016E00018280008280D002081000020820000201A
:1016F00010B590F8342001F10B039B5C90F8354055
:10170000A34301F10B04A35423469B5C23B98B7ABA
:1017100090F83640A3438B7210BD000010B51B4AF1
:101720001268D061194A126892F8343000F10B0245
:10173000D25C164B1B6893F835301A43134B1B6869
:1017400093F8344000F10B031A55827A0F4B1B6853
:1017500093F836301A4382720C4A126892F83410A9
:101760000B4A525C094B1B6893F835309A43084B7F
:101770005A541A46525C42B9044A126892F83630FA
:10178000044A12789A43034B1A7010BD900000204F
:101790008200002081000020014600228A72002081
:1017A00005E0002301F10B021354421CD0B20828BB
:1017B000F7D370472DE9F0415021114800F02CF982
:1017C00000250DE0681C86B20D4800EB051400EB07
:1017D00006170020207067600AA0E060681C85B2D0
:1017E000042DEFD3064800EB051400202070606044
:1017F00004A0E060024804490860BDE8F0810000F0
:10180000D80800203F0000006C00002070B5C821FF
:10181000114800F001F900230FE0581C85B203EBDA
:1018200083000D4901EB800405EB850001EB800688
:10183000002020706660581C83B2092BEDD303EBA7
:101840008300054901EB8004002020706060084699
:101850000249086070BD00001008002068000020E8
:1018600000200A4908600A4908700A4908700A49B4
:1018700008700A4908700A4908600A4908600A495C
:1018800008600A4908600A4908707047A8000020EB
:101890007D0000207E0000208B0000208A000020B8
:1018A000640000208C0000207800002074000020DC
:1018B0007C00002000210A4A1170002004E0002171
:1018C000084A1154411CC8B20828F8D30021064A1E
:1018D0001170064A1170064A1160064A116070477D
:1018E00081000020820000207F0000208000002076
:1018F000980000209000002070B54FF47C711948CA
:1019000000F08AF84FF48071174800F085F8002441
:1019100013E0601CC5B2C4EBC40000EB40001149E9
:1019200001EB8003C5EBC50000EB400001EB800636
:101930005E610EA0D864601CC4B20B2CE9D3C4EB6A
:10194000C40000EB4000074901EB80030020586110
:1019500006A0D864002006490860024805490860CE
:1019600070BD0000280E0020280D00203F00000060
:101970009C0000209400002000B587B003200021C7
:1019800080220A4BCDE90132CDE903104FF6FF70FA
:101990003F23074A00900748FFF732FC06AA06A13A
:1019A0003F20FFF78BFC07B000BD0000280B002094
:1019B000240D0020511C000875432F4F532D494919
:1019C0002049646C6500000000B587B00320002149
:1019D00080220A4BCDE90132CDE903104FF6FE70AB
:1019E0003E23074A00900748FFF70AFC06AA06A113
:1019F0003E20FFF763FC07B000BD0000280900206F
:101A0000240B0020791C000875432F4F532D4949A2
:101A1000205374617400000004E0002200F8012BE0
:101A20004A1E91B20029F8D1704700002DE9F0411B
:101A300078211048FFF7F0FF00240DE0601C86B20B
:101A400004EB44000B4901EBC00506EB460001EB3B
:101A5000C0072F60601C84B2042CEFD304EB440059
:101A6000044901EBC00500202860084602490860CF
:101A7000BDE8F08118120020A400002010B5002459
:101A8000FEF7CCFB044613480078F8B912480078FA
:101A9000E0B900F02DF811481149097850F82100FB
:101AA000104908600E4800780F49097888420DD027
:101AB0000C480068806B401C0A49096888630B4821
:101AC0000068401C09490860FEF7C0FB2046FEF78D
:101AD000A9FB10BD7D0000207E000020280D002005
:101AE00080000020980000207F000020640000207B
:101AF0000649074A1278885C0649095C034A515C2A
:101B000001EBC001044A117070470000182800085A
:101B10008100002082000020800000202DE9F84F85
:101B200005460F4690469946DDE90AAB0020009035
:101B3000FEF774FB00903F480468002C74D0183402
:101B400054F8040C3B4908600098FEF76BFB44F81E
:101B5000187CA576002020766076606144F814BC7D
:101B600044F80CAC44F8108C0C9824F8080C24F8B9
:101B7000069C0020E077E810207705F00700E0766B
:101B8000217F01208840A077E17E01208840607796
:101B900000206060E060A0602062A0626062E0629D
:101BA000206325A06063183C002606E0002104F1B4
:101BB000500040F82610701CC6B2002EF6D0204609
:101BC000FFF7CCFA2046FFF777FBFEF727FB0090E4
:101BD0001A4840F825401A48006860610020A0615A
:101BE0001748006810B11648006884611448046002
:101BF0003434A078134909780843124908702078D2
:101C00001149085C6178084314F834190E4A50549D
:101C10000E480078401C0D4908700098FEF702FB42
:101C20000020BDE8F88FFFE70098FEF7FBFA42209E
:101C3000F7E70000940000203F000000280D00207E
:101C40009C00002081000020820000208B000020EA
:101C5000002400BF00BFFEF7E1FA04460548006813
:101C6000401C044908602046FEF7DCFAFFF725FB1C
:101C7000F1E700008C000020002400BF02E02820D3
:101C8000FFF740FC194800780028F8D01848006891
:101C90006421B0FBF1F0164908600846006828B9D5
:101CA000002014490870FF20FFF7D6FB00BFFEF7A5
:101CB000B5FA0446104800681049086000200E4933
:101CC00008602046FEF7AEFA0C480068084909682B
:101CD000B0FBF1F0C0F1640006490870FFF726FB85
:101CE00000F00EF81420FFF70DFCE0E77C00002068
:101CF00074000020700000208C000020780000207C
:101D00007CB5002514E069462846FFF711FB06461E
:101D100066B9094850F8254044B1012C06D0D4E9F1
:101D2000020100EB810060640198A064681CC5B2E8
:101D30003F2DE8D97CBD0000280D002002F00103F2
:101D400043B102F002032BB102E0491E002308C098
:101D50000029FAD17047000029B1064AD26902432E
:101D6000044BDA6104E0034AD2698243014BDA6131
:101D7000704700000010024029B1064A1269024370
:101D8000044B1A6104E0034A12698243014B1A6151
:101D9000704700000010024029B1064A92690243D0
:101DA000044B9A6104E0034A92698243014B9A61B1
:101DB000704700000010024029B1064AD268024371
:101DC000044BDA6004E0034AD2688243014BDA60D4
:101DD000704700000010024030B5002100220024AE
:101DE00000232D4D6D6805F00C0121B1042905D0AB
:101DF000082923D105E0294D056022E0274D056023
:101E00001FE0254D6D6805F47012234D6D6805F4D3
:101E10008034022505EB92421CB9214D55430560E3
:101E20000BE01D4D6D6805F400351DB11C4D55438B
:101E3000056002E0194D5543056002E0174D05604D
:101E400000BF00BF144D6D6805F0F0010909154D84
:101E50006B5C0568DD4045600F4D6D6805F4E06121
:101E6000090A104D6B5C4568DD4085600A4D6D6860
:101E700005F46051C90A0B4D6B5C4568DD40C560D7
:101E8000054D6D6805F44041890B074D6B5CC568D5
:101E9000B5FBF3F5056130BD0010024000127A0079
:101EA00000093D005000002060000020704710B580
:101EB00000F002F810BD00000CB500200190009069
:101EC0003348006840F480303149086000BF304832
:101ED000006800F4003000900198401C01900098C8
:101EE00018B90198B0F5A06FF1D12948006800F445
:101EF000003010B10120009001E000200090009817
:101F0000012843D12348006840F0100021490860AF
:101F10000846006820F0030008600846006840F0AA
:101F2000020008601A48406819494860084640683D
:101F300048600846406840F4806048600846406851
:101F400020F47C1048600846406840F4E81048607F
:101F50000846006840F08070086000BF0C480068C8
:101F600000F000700028F9D00948406820F0030014
:101F7000074948600846406840F00200486000BFDA
:101F80000348406800F00C000828F9D10CBD00009F
:101F90000010024000200240042808D14FF0E02148
:101FA000096941F004014FF0E022116107E04FF0B0
:101FB000E021096921F004014FF0E022116170472E
:101FC00010B505480078012805D1FEF729FFFFF775
:101FD000D5FAFEF737FF10BD8A00002010B5134870
:101FE000006840F001001149086008464068104947
:101FF00008400E494860084600680E4908400B49F1
:1020000008600846006820F48020086008464068A0
:1020100020F4FE0048604FF41F008860FFF747FF80
:102020004FF000600449086010BD0000001002403D
:102030000000FFF8FFFFF6FE08ED00E010B540F2EB
:102040002551064800F091F930B10448001D008880
:10205000C1B2034800F0C8F910BD000000380140CB
:102060002800002010B50446E4B901210520FFF73F
:1020700093FE01218803FFF78FFE4FF4007018498B
:1020800008801820C870032088701648FEF727FDC6
:102090004FF48060124908800420C8701148FEF790
:1020A0001EFD1BE0012C19D101210820FFF774FE51
:1020B00001218803FFF770FE40200949088018209D
:1020C000C870032088700848FEF709FD8020044985
:1020D00008800420C8700448FEF701FD10BD000010
:1020E0004C00002000080140000C014010B540F2F7
:1020F0002551064800F039F930B10448001D008828
:10210000C1B2034800F070F910BD00000044004067
:102110003400002010B5044601214804FFF71CFEDE
:10212000022C1AD101210420FFF736FE01214804B8
:10213000FFF712FE0420174908801820C8700320FA
:1021400088701548FEF7CBFC08201249088004204F
:10215000C8701148FEF7C3FC1BE0032C19D1012104
:102160002020FFF719FE01214804FFF7F5FD20208C
:10217000084908801820C870032088700748FEF7B7
:10218000AEFC4020034908800420C8700348FEF7D5
:10219000A6FC10BD4C0000200008014000140140C6
:1021A00010B540F22551064800F0DFF830B1044880
:1021B000001D0088C1B2034800F016F910BD0000F0
:1021C000004800404000002010B50446012188046A
:1021D000FFF7C2FD042C1AD101210820FFF7DCFD16
:1021E00001218804FFF7D8FD200228490880182023
:1021F000C870032088702648FEF771FC60022349EE
:1022000008800420C8702248FEF769FC3CE0052CD9
:102210001CD101211020FFF7BFFD01218804FFF729
:10222000BBFD4FF48060194908801820C870032056
:1022300088701848FEF753FC4FF40060134908807B
:102240000420C8701348FEF74AFC1DE0062C1BD181
:1022500001212020FFF7A0FD01218804FFF79CFD4C
:102260004FF48070094908801820C87003208870D6
:102270000948FEF734FC4FF400700449088004203C
:10228000C8700548FEF72BFC10BD00004C00002074
:10229000000C0140001001400014014021B182896E
:1022A00042F40052828104E082894DF6FF731A40A5
:1022B0008281704710B504462048844209D101212B
:1022C0008803FFF779FD00214FF48040FFF774FD8C
:1022D00032E01B48844209D101214804FFF74CFD3C
:1022E00000214FF40030FFF747FD25E015488442F8
:1022F00009D101218804FFF73FFD00214FF4802020
:10230000FFF73AFD18E01048844209D10121C804C2
:10231000FFF732FD00214FF40020FFF72DFD0BE009
:102320000A48844208D101210805FFF725FD002154
:102330004FF48010FFF720FD10BD00000038014071
:102340000044004000480040004C00400050004065
:1023500002460020B1F5007F00D100BF13880B407A
:102360000BB1012000E00020704770B50246002448
:1023700000230025002040F66A16B14200D100BFBC
:10238000C1F3421501F01F03012606FA03F3012DE4
:1023900002D19689334006E0022D02D1168A3340DD
:1023A00001E0968A33400C12012606FA04F41688DE
:1023B000344013B10CB1012000E0002070BD0000DA
:1023C0000146064A914200D10020054A914200D1BF
:1023D0000120044A914200D1022070470038014098
:1023E000004400400048004010B5C28883889A42EB
:1023F0000FDA028983889A4201D1002202814AB20F
:10240000048903681A550289521C0281C288521C31
:10241000C28010BDF0B50346002400260025002030
:1024200040F66A17B94200D100BF1846C1F3421402
:1024300001F01F06012707FA06F5012C01D10C3027
:1024400004E0022C01D1103000E014301AB107680A
:102450002F43076002E00768AF430760F0BD00004C
:102460002DE9F04786B005460E460024A24600BF7F
:10247000A1460027B08900B100BF2F462C8A4CF638
:10248000FF700440F08804432C82AC894EF6F310B0
:102490000440B08831890843718908430443AC8102
:1024A000AC8A4FF6FF400440B0890443AC8201A8D7
:1024B000FFF792FC1F48874202D1DDF810A001E02F
:1024C000DDF80CA0A88900F4004040B10AEBCA0076
:1024D00000EB0A1031684900B0FBF1F807E00AEBA5
:1024E000CA0000EB0A1031688900B0FBF1F86420E3
:1024F000B8FBF0F004012009642101FB1089A889D0
:1025000000F4004040B1322000EBC900B0FBF1F014
:1025100000F00700044308E0322000EB09106421BA
:10252000B0FBF1F000F00F0004432C8106B0BDE8D1
:10253000F08700000038014013B5044600BF802139
:102540002046FFF705FF0028F9D09DF80400A08081
:102550001CBD000070B586B004460D4616460296B6
:102560003348844212D12846FFF77CFD25208DF8A0
:1025700004000020ADF814000C20ADF8120000207B
:10258000ADF81000ADF80E00ADF80C0029488442FB
:1025900012D12846FFF7BEFD26208DF8040000204A
:1025A000ADF814000C20ADF812000020ADF81000BA
:1025B000ADF80E00ADF80C001F48844212D1284639
:1025C000FFF702FE27208DF804000020ADF814006C
:1025D0000C20ADF812000020ADF81000ADF80E0090
:1025E000ADF80C0000212046FFF758FE2046FFF70B
:1025F00061FE02A92046FFF733FF01212046FFF7C5
:102600004DFE012240F225512046FFF703FF012035
:102610008DF8070000208DF805002046FFF7D0FE5A
:102620008DF8060001A8FEF7A1FB06B070BD000002
:1026300000380140004400400048004000BFFEE771
:1026400010B56FF00400FFF7A7FC104800681049B0
:10265000B0FBF1F00F4908700C4800680C49B0FB62
:10266000F1F441F28830444305200B4908804FF0D3
:10267000E020006940F002004FF0E02108610846C8
:102680004461006940F00100086110BD0C000020A9
:1026900000127A00200000202200002070B50446BD
:1026A0000F480078A0B10F48007888B90E4800881C
:1026B000844206DB0C48008894FBF0F5284600F0C5
:1026C0001DF80948008894FBF0F100FB114084B22A
:1026D0004FF47A7104FB01F000F016F870BD0000B1
:1026E0008A0000207D0000202200002010B5FEF7A7
:1026F000C1FC10BD10B5FEF7DDFC10BD10B50446E1
:102700002046FEF7FFFE10BD2DE9F04707460026E4
:102710004FF0E020D0F814901148007807FB00F843
:1027200000BFFFF7E3FF4FF0E020856911E04FF0B5
:10273000E0208469AC420CD0AC4202D2281B064493
:1027400003E0A9EB0400284406442546464500D38F
:1027500000E0ECE700BFFFF7CDFFBDE8F087000029
:102760002000002070B504460D46E1B20248FFF794
:10277000E3FE204670BD00000038014010B54FF464
:10278000A060FEF72BFBFFF75BFFFEF773FAFEF787
:1027900033FA4FF4165200210748FFF7DBFEFEF72D
:1027A00027FB0A23054A00210548FEF7D9FCFEF75E
:1027B000B1FC002010BD000000380140AC01002039
:1027C000C527000870B50446002500BF0020FEF7AD
:1027D00081FB0C490860FDF721FD054605230A4AE7
:1027E00000210A48FEF7BCFC0423094A00210948DD
:1027F000FEF7B6FC0A20FEF72FFE2846FDF712FD75
:1028000070BD000008000020AC030020750A00081D
:10281000AC070020F10C00080000010002000100DC
:102820000300010002000100040001000200010099
:102830000300010002000100050001000200010088
:102840000300010002000100040001000200010079
:102850000300010002000100060001000200010067
:102860000300010002000100040001000200010059
:102870000300010002000100050001000200010048
:102880000300010002000100040001000200010039
:102890000300010002000100070001000200010026
:1028A0000300010002000100040001000200010019
:1028B0000300010002000100050001000200010008
:1028C00003000100020001000400010002000100F9
:1028D00003000100020001000600010002000100E7
:1028E00003000100020001000400010002000100D9
:1028F00003000100020001000500010002000100C8
:1029000003000100020001000400010002000100B8
:102910000300010002000100382900080000002027
:10292000AC0000006C010008E4290008AC000020A5
:10293000441E0000880100080000000000000000A4
:102940000000000000A24A04000000000000000097
:10295000010203040607080900000000000000004F
:10296000B00700202000000000000000D007002079
:102970002000000000000000F00700202000000000
:10298000000000000000000000000000010203043D
:1029900001020304060708090204060800000000FB
:1029A0000000000000000000000000000000000027
:1029B0000000000000000000000000000000000017
:1029C0000000000000000000000000000000000007
:1029D00000000000000000000000000000000000F7
:0429E00000000000F3
:04000005080001DD11
:00000001FF
